{
  "contractName": "MicroDex",
  "abi": [
    {
      "constant": true,
      "inputs": [
        {
          "name": "",
          "type": "address"
        },
        {
          "name": "",
          "type": "bytes32"
        }
      ],
      "name": "orderFills",
      "outputs": [
        {
          "name": "",
          "type": "uint256"
        }
      ],
      "payable": false,
      "stateMutability": "view",
      "type": "function"
    },
    {
      "constant": true,
      "inputs": [
        {
          "name": "",
          "type": "address"
        },
        {
          "name": "",
          "type": "address"
        }
      ],
      "name": "tokens",
      "outputs": [
        {
          "name": "",
          "type": "uint256"
        }
      ],
      "payable": false,
      "stateMutability": "view",
      "type": "function"
    },
    {
      "constant": true,
      "inputs": [
        {
          "name": "",
          "type": "address"
        },
        {
          "name": "",
          "type": "bytes32"
        }
      ],
      "name": "orders",
      "outputs": [
        {
          "name": "",
          "type": "bool"
        }
      ],
      "payable": false,
      "stateMutability": "view",
      "type": "function"
    },
    {
      "inputs": [],
      "payable": false,
      "stateMutability": "nonpayable",
      "type": "constructor"
    },
    {
      "payable": false,
      "stateMutability": "nonpayable",
      "type": "fallback"
    },
    {
      "anonymous": false,
      "inputs": [
        {
          "indexed": false,
          "name": "tokenGet",
          "type": "address"
        },
        {
          "indexed": false,
          "name": "amountGet",
          "type": "uint256"
        },
        {
          "indexed": false,
          "name": "tokenGive",
          "type": "address"
        },
        {
          "indexed": false,
          "name": "amountGive",
          "type": "uint256"
        },
        {
          "indexed": false,
          "name": "expires",
          "type": "uint256"
        },
        {
          "indexed": false,
          "name": "nonce",
          "type": "uint256"
        },
        {
          "indexed": false,
          "name": "user",
          "type": "address"
        }
      ],
      "name": "Order",
      "type": "event"
    },
    {
      "anonymous": false,
      "inputs": [
        {
          "indexed": false,
          "name": "tokenGet",
          "type": "address"
        },
        {
          "indexed": false,
          "name": "amountGet",
          "type": "uint256"
        },
        {
          "indexed": false,
          "name": "tokenGive",
          "type": "address"
        },
        {
          "indexed": false,
          "name": "amountGive",
          "type": "uint256"
        },
        {
          "indexed": false,
          "name": "expires",
          "type": "uint256"
        },
        {
          "indexed": false,
          "name": "nonce",
          "type": "uint256"
        },
        {
          "indexed": false,
          "name": "user",
          "type": "address"
        },
        {
          "indexed": false,
          "name": "v",
          "type": "uint8"
        },
        {
          "indexed": false,
          "name": "r",
          "type": "bytes32"
        },
        {
          "indexed": false,
          "name": "s",
          "type": "bytes32"
        }
      ],
      "name": "Cancel",
      "type": "event"
    },
    {
      "anonymous": false,
      "inputs": [
        {
          "indexed": false,
          "name": "tokenGet",
          "type": "address"
        },
        {
          "indexed": false,
          "name": "amountGet",
          "type": "uint256"
        },
        {
          "indexed": false,
          "name": "tokenGive",
          "type": "address"
        },
        {
          "indexed": false,
          "name": "amountGive",
          "type": "uint256"
        },
        {
          "indexed": false,
          "name": "get",
          "type": "address"
        },
        {
          "indexed": false,
          "name": "give",
          "type": "address"
        }
      ],
      "name": "Trade",
      "type": "event"
    },
    {
      "anonymous": false,
      "inputs": [
        {
          "indexed": false,
          "name": "token",
          "type": "address"
        },
        {
          "indexed": false,
          "name": "user",
          "type": "address"
        },
        {
          "indexed": false,
          "name": "amount",
          "type": "uint256"
        },
        {
          "indexed": false,
          "name": "balance",
          "type": "uint256"
        }
      ],
      "name": "Deposit",
      "type": "event"
    },
    {
      "anonymous": false,
      "inputs": [
        {
          "indexed": false,
          "name": "token",
          "type": "address"
        },
        {
          "indexed": false,
          "name": "user",
          "type": "address"
        },
        {
          "indexed": false,
          "name": "amount",
          "type": "uint256"
        },
        {
          "indexed": false,
          "name": "balance",
          "type": "uint256"
        }
      ],
      "name": "Withdraw",
      "type": "event"
    },
    {
      "constant": false,
      "inputs": [],
      "name": "deposit",
      "outputs": [],
      "payable": true,
      "stateMutability": "payable",
      "type": "function"
    },
    {
      "constant": false,
      "inputs": [
        {
          "name": "amount",
          "type": "uint256"
        }
      ],
      "name": "withdraw",
      "outputs": [],
      "payable": false,
      "stateMutability": "nonpayable",
      "type": "function"
    },
    {
      "constant": false,
      "inputs": [
        {
          "name": "token",
          "type": "address"
        },
        {
          "name": "amount",
          "type": "uint256"
        }
      ],
      "name": "depositToken",
      "outputs": [],
      "payable": false,
      "stateMutability": "nonpayable",
      "type": "function"
    },
    {
      "constant": false,
      "inputs": [
        {
          "name": "token",
          "type": "address"
        },
        {
          "name": "amount",
          "type": "uint256"
        }
      ],
      "name": "withdrawToken",
      "outputs": [],
      "payable": false,
      "stateMutability": "nonpayable",
      "type": "function"
    },
    {
      "constant": true,
      "inputs": [
        {
          "name": "token",
          "type": "address"
        },
        {
          "name": "user",
          "type": "address"
        }
      ],
      "name": "balanceOf",
      "outputs": [
        {
          "name": "",
          "type": "uint256"
        }
      ],
      "payable": false,
      "stateMutability": "view",
      "type": "function"
    },
    {
      "constant": false,
      "inputs": [
        {
          "name": "tokenGet",
          "type": "address"
        },
        {
          "name": "amountGet",
          "type": "uint256"
        },
        {
          "name": "tokenGive",
          "type": "address"
        },
        {
          "name": "amountGive",
          "type": "uint256"
        },
        {
          "name": "expires",
          "type": "uint256"
        },
        {
          "name": "nonce",
          "type": "uint256"
        }
      ],
      "name": "order",
      "outputs": [],
      "payable": false,
      "stateMutability": "nonpayable",
      "type": "function"
    },
    {
      "constant": false,
      "inputs": [
        {
          "name": "tokenGet",
          "type": "address"
        },
        {
          "name": "amountGet",
          "type": "uint256"
        },
        {
          "name": "tokenGive",
          "type": "address"
        },
        {
          "name": "amountGive",
          "type": "uint256"
        },
        {
          "name": "expires",
          "type": "uint256"
        },
        {
          "name": "nonce",
          "type": "uint256"
        },
        {
          "name": "user",
          "type": "address"
        },
        {
          "name": "v",
          "type": "uint8"
        },
        {
          "name": "r",
          "type": "bytes32"
        },
        {
          "name": "s",
          "type": "bytes32"
        },
        {
          "name": "amount",
          "type": "uint256"
        }
      ],
      "name": "trade",
      "outputs": [],
      "payable": false,
      "stateMutability": "nonpayable",
      "type": "function"
    },
    {
      "constant": true,
      "inputs": [
        {
          "name": "tokenGet",
          "type": "address"
        },
        {
          "name": "amountGet",
          "type": "uint256"
        },
        {
          "name": "tokenGive",
          "type": "address"
        },
        {
          "name": "amountGive",
          "type": "uint256"
        },
        {
          "name": "expires",
          "type": "uint256"
        },
        {
          "name": "nonce",
          "type": "uint256"
        },
        {
          "name": "user",
          "type": "address"
        },
        {
          "name": "v",
          "type": "uint8"
        },
        {
          "name": "r",
          "type": "bytes32"
        },
        {
          "name": "s",
          "type": "bytes32"
        },
        {
          "name": "amount",
          "type": "uint256"
        },
        {
          "name": "sender",
          "type": "address"
        }
      ],
      "name": "testTrade",
      "outputs": [
        {
          "name": "",
          "type": "bool"
        }
      ],
      "payable": false,
      "stateMutability": "view",
      "type": "function"
    },
    {
      "constant": true,
      "inputs": [
        {
          "name": "tokenGet",
          "type": "address"
        },
        {
          "name": "amountGet",
          "type": "uint256"
        },
        {
          "name": "tokenGive",
          "type": "address"
        },
        {
          "name": "amountGive",
          "type": "uint256"
        },
        {
          "name": "expires",
          "type": "uint256"
        },
        {
          "name": "nonce",
          "type": "uint256"
        },
        {
          "name": "user",
          "type": "address"
        },
        {
          "name": "v",
          "type": "uint8"
        },
        {
          "name": "r",
          "type": "bytes32"
        },
        {
          "name": "s",
          "type": "bytes32"
        }
      ],
      "name": "availableVolume",
      "outputs": [
        {
          "name": "",
          "type": "uint256"
        }
      ],
      "payable": false,
      "stateMutability": "view",
      "type": "function"
    },
    {
      "constant": true,
      "inputs": [
        {
          "name": "tokenGet",
          "type": "address"
        },
        {
          "name": "amountGet",
          "type": "uint256"
        },
        {
          "name": "tokenGive",
          "type": "address"
        },
        {
          "name": "amountGive",
          "type": "uint256"
        },
        {
          "name": "expires",
          "type": "uint256"
        },
        {
          "name": "nonce",
          "type": "uint256"
        },
        {
          "name": "user",
          "type": "address"
        },
        {
          "name": "v",
          "type": "uint8"
        },
        {
          "name": "r",
          "type": "bytes32"
        },
        {
          "name": "s",
          "type": "bytes32"
        }
      ],
      "name": "amountFilled",
      "outputs": [
        {
          "name": "",
          "type": "uint256"
        }
      ],
      "payable": false,
      "stateMutability": "view",
      "type": "function"
    },
    {
      "constant": false,
      "inputs": [
        {
          "name": "tokenGet",
          "type": "address"
        },
        {
          "name": "amountGet",
          "type": "uint256"
        },
        {
          "name": "tokenGive",
          "type": "address"
        },
        {
          "name": "amountGive",
          "type": "uint256"
        },
        {
          "name": "expires",
          "type": "uint256"
        },
        {
          "name": "nonce",
          "type": "uint256"
        },
        {
          "name": "v",
          "type": "uint8"
        },
        {
          "name": "r",
          "type": "bytes32"
        },
        {
          "name": "s",
          "type": "bytes32"
        }
      ],
      "name": "cancelOrder",
      "outputs": [],
      "payable": false,
      "stateMutability": "nonpayable",
      "type": "function"
    }
  ],
  "bytecode": "0x6060604052341561000f57600080fd5b6000809054906101000a900460ff161561002857600080fd5b60016000806101000a81548160ff021916908315150217905550612aca806100516000396000f3006060604052600436106100d0576000357c0100000000000000000000000000000000000000000000000000000000900463ffffffff1680630a19b14a146100e05780630b927666146101aa57806319774d4314610226578063278b8c0e146102805780632e1a7d4d14610322578063338b5dea1461034557806346be96c314610387578063508493bc1461045c5780636c86888b146104c85780639e281a98146105c9578063bb5f46291461060b578063d0e30db014610669578063f7888aec14610673578063fb6e155f146106df575b34156100db57600080fd5b600080fd5b34156100eb57600080fd5b6101a8600480803573ffffffffffffffffffffffffffffffffffffffff1690602001909190803590602001909190803573ffffffffffffffffffffffffffffffffffffffff1690602001909190803590602001909190803590602001909190803590602001909190803573ffffffffffffffffffffffffffffffffffffffff1690602001909190803560ff1690602001909190803560001916906020019091908035600019169060200190919080359060200190919050506107b4565b005b34156101b557600080fd5b610224600480803573ffffffffffffffffffffffffffffffffffffffff1690602001909190803590602001909190803573ffffffffffffffffffffffffffffffffffffffff16906020019091908035906020019091908035906020019091908035906020019091905050610cb9565b005b341561023157600080fd5b61026a600480803573ffffffffffffffffffffffffffffffffffffffff1690602001909190803560001916906020019091905050610f42565b6040518082815260200191505060405180910390f35b341561028b57600080fd5b610320600480803573ffffffffffffffffffffffffffffffffffffffff1690602001909190803590602001909190803573ffffffffffffffffffffffffffffffffffffffff1690602001909190803590602001909190803590602001909190803590602001909190803560ff169060200190919080356000191690602001909190803560001916906020019091905050610f67565b005b341561032d57600080fd5b610343600480803590602001909190505061137f565b005b341561035057600080fd5b610385600480803573ffffffffffffffffffffffffffffffffffffffff16906020019091908035906020019091905050611609565b005b341561039257600080fd5b610446600480803573ffffffffffffffffffffffffffffffffffffffff1690602001909190803590602001909190803573ffffffffffffffffffffffffffffffffffffffff1690602001909190803590602001909190803590602001909190803590602001909190803573ffffffffffffffffffffffffffffffffffffffff1690602001909190803560ff16906020019091908035600019169060200190919080356000191690602001909190505061195f565b6040518082815260200191505060405180910390f35b341561046757600080fd5b6104b2600480803573ffffffffffffffffffffffffffffffffffffffff1690602001909190803573ffffffffffffffffffffffffffffffffffffffff16906020019091905050611aee565b6040518082815260200191505060405180910390f35b34156104d357600080fd5b6105af600480803573ffffffffffffffffffffffffffffffffffffffff1690602001909190803590602001909190803573ffffffffffffffffffffffffffffffffffffffff1690602001909190803590602001909190803590602001909190803590602001909190803573ffffffffffffffffffffffffffffffffffffffff1690602001909190803560ff16906020019091908035600019169060200190919080356000191690602001909190803590602001909190803573ffffffffffffffffffffffffffffffffffffffff16906020019091905050611b13565b604051808215151515815260200191505060405180910390f35b34156105d457600080fd5b610609600480803573ffffffffffffffffffffffffffffffffffffffff16906020019091908035906020019091905050611bd6565b005b341561061657600080fd5b61064f600480803573ffffffffffffffffffffffffffffffffffffffff1690602001909190803560001916906020019091905050611f81565b604051808215151515815260200191505060405180910390f35b610671611fb0565b005b341561067e57600080fd5b6106c9600480803573ffffffffffffffffffffffffffffffffffffffff1690602001909190803573ffffffffffffffffffffffffffffffffffffffff16906020019091905050612184565b6040518082815260200191505060405180910390f35b34156106ea57600080fd5b61079e600480803573ffffffffffffffffffffffffffffffffffffffff1690602001909190803590602001909190803573ffffffffffffffffffffffffffffffffffffffff1690602001909190803590602001909190803590602001909190803590602001909190803573ffffffffffffffffffffffffffffffffffffffff1690602001909190803560ff16906020019091908035600019169060200190919080356000191690602001909190505061220b565b6040518082815260200191505060405180910390f35b60006002308d8d8d8d8d8d600060405160200152604051808873ffffffffffffffffffffffffffffffffffffffff1673ffffffffffffffffffffffffffffffffffffffff166c010000000000000000000000000281526014018773ffffffffffffffffffffffffffffffffffffffff1673ffffffffffffffffffffffffffffffffffffffff166c010000000000000000000000000281526014018681526020018573ffffffffffffffffffffffffffffffffffffffff1673ffffffffffffffffffffffffffffffffffffffff166c0100000000000000000000000002815260140184815260200183815260200182815260200197505050505050505060206040518083038160008661646e5a03f115156108cd57600080fd5b5050604051805190509050600260008773ffffffffffffffffffffffffffffffffffffffff1673ffffffffffffffffffffffffffffffffffffffff1681526020019081526020016000206000826000191660001916815260200190815260200160002060009054906101000a900460ff1680610a3f57508573ffffffffffffffffffffffffffffffffffffffff1660018260405180807f19457468657265756d205369676e6564204d6573736167653a0a333200000000815250601c0182600019166000191681526020019150506040518091039020878787604051600081526020016040526000604051602001526040518085600019166000191681526020018460ff1660ff16815260200183600019166000191681526020018260001916600019168152602001945050505050602060405160208103908084039060008661646e5a03f11515610a1e57600080fd5b50506020604051035173ffffffffffffffffffffffffffffffffffffffff16145b8015610a4b5750874311155b8015610ab857508a610ab5600360008973ffffffffffffffffffffffffffffffffffffffff1673ffffffffffffffffffffffffffffffffffffffff1681526020019081526020016000206000846000191660001916815260200190815260200160002054846125d1565b11155b1515610ac357600080fd5b610ad18c8c8c8c8a876125fb565b610b33600360008873ffffffffffffffffffffffffffffffffffffffff1673ffffffffffffffffffffffffffffffffffffffff1681526020019081526020016000206000836000191660001916815260200190815260200160002054836125d1565b600360008873ffffffffffffffffffffffffffffffffffffffff1673ffffffffffffffffffffffffffffffffffffffff16815260200190815260200160002060008360001916600019168152602001908152602001600020819055507f6effdda786735d5033bfad5f53e5131abcced9e52be6c507b62d639685fbed6d8c838c8e868e02811515610bc057fe5b048a33604051808773ffffffffffffffffffffffffffffffffffffffff1673ffffffffffffffffffffffffffffffffffffffff1681526020018681526020018573ffffffffffffffffffffffffffffffffffffffff1673ffffffffffffffffffffffffffffffffffffffff1681526020018481526020018373ffffffffffffffffffffffffffffffffffffffff1673ffffffffffffffffffffffffffffffffffffffff1681526020018273ffffffffffffffffffffffffffffffffffffffff1673ffffffffffffffffffffffffffffffffffffffff168152602001965050505050505060405180910390a1505050505050505050505050565b6000600230888888888888600060405160200152604051808873ffffffffffffffffffffffffffffffffffffffff1673ffffffffffffffffffffffffffffffffffffffff166c010000000000000000000000000281526014018773ffffffffffffffffffffffffffffffffffffffff1673ffffffffffffffffffffffffffffffffffffffff166c010000000000000000000000000281526014018681526020018573ffffffffffffffffffffffffffffffffffffffff1673ffffffffffffffffffffffffffffffffffffffff166c0100000000000000000000000002815260140184815260200183815260200182815260200197505050505050505060206040518083038160008661646e5a03f11515610dd257600080fd5b50506040518051905090506001600260003373ffffffffffffffffffffffffffffffffffffffff1673ffffffffffffffffffffffffffffffffffffffff1681526020019081526020016000206000836000191660001916815260200190815260200160002060006101000a81548160ff0219169083151502179055507f3f7f2eda73683c21a15f9435af1028c93185b5f1fa38270762dc32be606b3e8587878787878733604051808873ffffffffffffffffffffffffffffffffffffffff1673ffffffffffffffffffffffffffffffffffffffff1681526020018781526020018673ffffffffffffffffffffffffffffffffffffffff1673ffffffffffffffffffffffffffffffffffffffff1681526020018581526020018481526020018381526020018273ffffffffffffffffffffffffffffffffffffffff1673ffffffffffffffffffffffffffffffffffffffff16815260200197505050505050505060405180910390a150505050505050565b6003602052816000526040600020602052806000526040600020600091509150505481565b60006002308b8b8b8b8b8b600060405160200152604051808873ffffffffffffffffffffffffffffffffffffffff1673ffffffffffffffffffffffffffffffffffffffff166c010000000000000000000000000281526014018773ffffffffffffffffffffffffffffffffffffffff1673ffffffffffffffffffffffffffffffffffffffff166c010000000000000000000000000281526014018681526020018573ffffffffffffffffffffffffffffffffffffffff1673ffffffffffffffffffffffffffffffffffffffff166c0100000000000000000000000002815260140184815260200183815260200182815260200197505050505050505060206040518083038160008661646e5a03f1151561108057600080fd5b5050604051805190509050600260003373ffffffffffffffffffffffffffffffffffffffff1673ffffffffffffffffffffffffffffffffffffffff1681526020019081526020016000206000826000191660001916815260200190815260200160002060009054906101000a900460ff16806111f257503373ffffffffffffffffffffffffffffffffffffffff1660018260405180807f19457468657265756d205369676e6564204d6573736167653a0a333200000000815250601c0182600019166000191681526020019150506040518091039020868686604051600081526020016040526000604051602001526040518085600019166000191681526020018460ff1660ff16815260200183600019166000191681526020018260001916600019168152602001945050505050602060405160208103908084039060008661646e5a03f115156111d157600080fd5b50506020604051035173ffffffffffffffffffffffffffffffffffffffff16145b15156111fd57600080fd5b88600360003373ffffffffffffffffffffffffffffffffffffffff1673ffffffffffffffffffffffffffffffffffffffff16815260200190815260200160002060008360001916600019168152602001908152602001600020819055507f1e0b760c386003e9cb9bcf4fcf3997886042859d9b6ed6320e804597fcdb28b08a8a8a8a8a8a338b8b8b604051808b73ffffffffffffffffffffffffffffffffffffffff1673ffffffffffffffffffffffffffffffffffffffff1681526020018a81526020018973ffffffffffffffffffffffffffffffffffffffff1673ffffffffffffffffffffffffffffffffffffffff1681526020018881526020018781526020018681526020018573ffffffffffffffffffffffffffffffffffffffff1673ffffffffffffffffffffffffffffffffffffffff1681526020018460ff1660ff168152602001836000191660001916815260200182600019166000191681526020019a505050505050505050505060405180910390a150505050505050505050565b80600160008073ffffffffffffffffffffffffffffffffffffffff16815260200190815260200160002060003373ffffffffffffffffffffffffffffffffffffffff1673ffffffffffffffffffffffffffffffffffffffff16815260200190815260200160002054101515156113f457600080fd5b611464600160008073ffffffffffffffffffffffffffffffffffffffff16815260200190815260200160002060003373ffffffffffffffffffffffffffffffffffffffff1673ffffffffffffffffffffffffffffffffffffffff1681526020019081526020016000205482612a43565b600160008073ffffffffffffffffffffffffffffffffffffffff16815260200190815260200160002060003373ffffffffffffffffffffffffffffffffffffffff1673ffffffffffffffffffffffffffffffffffffffff168152602001908152602001600020819055503373ffffffffffffffffffffffffffffffffffffffff166108fc829081150290604051600060405180830381858888f19350505050151561150e57600080fd5b7ff341246adaac6f497bc2a656f546ab9e182111d630394f0c57c710a59a2cb56760003383600160008073ffffffffffffffffffffffffffffffffffffffff16815260200190815260200160002060003373ffffffffffffffffffffffffffffffffffffffff1673ffffffffffffffffffffffffffffffffffffffff16815260200190815260200160002054604051808573ffffffffffffffffffffffffffffffffffffffff1681526020018473ffffffffffffffffffffffffffffffffffffffff1673ffffffffffffffffffffffffffffffffffffffff16815260200183815260200182815260200194505050505060405180910390a150565b60008273ffffffffffffffffffffffffffffffffffffffff16141561162d57600080fd5b8173ffffffffffffffffffffffffffffffffffffffff166323b872dd3330846000604051602001526040518463ffffffff167c0100000000000000000000000000000000000000000000000000000000028152600401808473ffffffffffffffffffffffffffffffffffffffff1673ffffffffffffffffffffffffffffffffffffffff1681526020018373ffffffffffffffffffffffffffffffffffffffff1673ffffffffffffffffffffffffffffffffffffffff1681526020018281526020019350505050602060405180830381600087803b151561170c57600080fd5b6102c65a03f1151561171d57600080fd5b50505060405180519050151561173257600080fd5b6117b8600160008473ffffffffffffffffffffffffffffffffffffffff1673ffffffffffffffffffffffffffffffffffffffff16815260200190815260200160002060003373ffffffffffffffffffffffffffffffffffffffff1673ffffffffffffffffffffffffffffffffffffffff16815260200190815260200160002054826125d1565b600160008473ffffffffffffffffffffffffffffffffffffffff1673ffffffffffffffffffffffffffffffffffffffff16815260200190815260200160002060003373ffffffffffffffffffffffffffffffffffffffff1673ffffffffffffffffffffffffffffffffffffffff168152602001908152602001600020819055507fdcbc1c05240f31ff3ad067ef1ee35ce4997762752e3a095284754544f4c709d7823383600160008773ffffffffffffffffffffffffffffffffffffffff1673ffffffffffffffffffffffffffffffffffffffff16815260200190815260200160002060003373ffffffffffffffffffffffffffffffffffffffff1673ffffffffffffffffffffffffffffffffffffffff16815260200190815260200160002054604051808573ffffffffffffffffffffffffffffffffffffffff1673ffffffffffffffffffffffffffffffffffffffff1681526020018473ffffffffffffffffffffffffffffffffffffffff1673ffffffffffffffffffffffffffffffffffffffff16815260200183815260200182815260200194505050505060405180910390a15050565b6000806002308d8d8d8d8d8d600060405160200152604051808873ffffffffffffffffffffffffffffffffffffffff1673ffffffffffffffffffffffffffffffffffffffff166c010000000000000000000000000281526014018773ffffffffffffffffffffffffffffffffffffffff1673ffffffffffffffffffffffffffffffffffffffff166c010000000000000000000000000281526014018681526020018573ffffffffffffffffffffffffffffffffffffffff1673ffffffffffffffffffffffffffffffffffffffff166c0100000000000000000000000002815260140184815260200183815260200182815260200197505050505050505060206040518083038160008661646e5a03f11515611a7957600080fd5b5050604051805190509050600360008773ffffffffffffffffffffffffffffffffffffffff1673ffffffffffffffffffffffffffffffffffffffff16815260200190815260200160002060008260001916600019168152602001908152602001600020549150509a9950505050505050505050565b6001602052816000526040600020602052806000526040600020600091509150505481565b600082600160008f73ffffffffffffffffffffffffffffffffffffffff1673ffffffffffffffffffffffffffffffffffffffff16815260200190815260200160002060008473ffffffffffffffffffffffffffffffffffffffff1673ffffffffffffffffffffffffffffffffffffffff1681526020019081526020016000205410158015611bb2575082611baf8e8e8e8e8e8e8e8e8e8e61220b565b10155b1515611bc15760009050611bc6565b600190505b9c9b505050505050505050505050565b60008273ffffffffffffffffffffffffffffffffffffffff161415611bfa57600080fd5b80600160008473ffffffffffffffffffffffffffffffffffffffff1673ffffffffffffffffffffffffffffffffffffffff16815260200190815260200160002060003373ffffffffffffffffffffffffffffffffffffffff1673ffffffffffffffffffffffffffffffffffffffff168152602001908152602001600020541015611c8357600080fd5b611d09600160008473ffffffffffffffffffffffffffffffffffffffff1673ffffffffffffffffffffffffffffffffffffffff16815260200190815260200160002060003373ffffffffffffffffffffffffffffffffffffffff1673ffffffffffffffffffffffffffffffffffffffff1681526020019081526020016000205482612a43565b600160008473ffffffffffffffffffffffffffffffffffffffff1673ffffffffffffffffffffffffffffffffffffffff16815260200190815260200160002060003373ffffffffffffffffffffffffffffffffffffffff1673ffffffffffffffffffffffffffffffffffffffff168152602001908152602001600020819055508173ffffffffffffffffffffffffffffffffffffffff1663a9059cbb33836000604051602001526040518363ffffffff167c0100000000000000000000000000000000000000000000000000000000028152600401808373ffffffffffffffffffffffffffffffffffffffff1673ffffffffffffffffffffffffffffffffffffffff16815260200182815260200192505050602060405180830381600087803b1515611e3457600080fd5b6102c65a03f11515611e4557600080fd5b505050604051805190501515611e5a57600080fd5b7ff341246adaac6f497bc2a656f546ab9e182111d630394f0c57c710a59a2cb567823383600160008773ffffffffffffffffffffffffffffffffffffffff1673ffffffffffffffffffffffffffffffffffffffff16815260200190815260200160002060003373ffffffffffffffffffffffffffffffffffffffff1673ffffffffffffffffffffffffffffffffffffffff16815260200190815260200160002054604051808573ffffffffffffffffffffffffffffffffffffffff1673ffffffffffffffffffffffffffffffffffffffff1681526020018473ffffffffffffffffffffffffffffffffffffffff1673ffffffffffffffffffffffffffffffffffffffff16815260200183815260200182815260200194505050505060405180910390a15050565b60026020528160005260406000206020528060005260406000206000915091509054906101000a900460ff1681565b612020600160008073ffffffffffffffffffffffffffffffffffffffff16815260200190815260200160002060003373ffffffffffffffffffffffffffffffffffffffff1673ffffffffffffffffffffffffffffffffffffffff16815260200190815260200160002054346125d1565b600160008073ffffffffffffffffffffffffffffffffffffffff16815260200190815260200160002060003373ffffffffffffffffffffffffffffffffffffffff1673ffffffffffffffffffffffffffffffffffffffff168152602001908152602001600020819055507fdcbc1c05240f31ff3ad067ef1ee35ce4997762752e3a095284754544f4c709d760003334600160008073ffffffffffffffffffffffffffffffffffffffff16815260200190815260200160002060003373ffffffffffffffffffffffffffffffffffffffff1673ffffffffffffffffffffffffffffffffffffffff16815260200190815260200160002054604051808573ffffffffffffffffffffffffffffffffffffffff1681526020018473ffffffffffffffffffffffffffffffffffffffff1673ffffffffffffffffffffffffffffffffffffffff16815260200183815260200182815260200194505050505060405180910390a1565b6000600160008473ffffffffffffffffffffffffffffffffffffffff1673ffffffffffffffffffffffffffffffffffffffff16815260200190815260200160002060008373ffffffffffffffffffffffffffffffffffffffff1673ffffffffffffffffffffffffffffffffffffffff16815260200190815260200160002054905092915050565b6000806000806002308f8f8f8f8f8f600060405160200152604051808873ffffffffffffffffffffffffffffffffffffffff1673ffffffffffffffffffffffffffffffffffffffff166c010000000000000000000000000281526014018773ffffffffffffffffffffffffffffffffffffffff1673ffffffffffffffffffffffffffffffffffffffff166c010000000000000000000000000281526014018681526020018573ffffffffffffffffffffffffffffffffffffffff1673ffffffffffffffffffffffffffffffffffffffff166c0100000000000000000000000002815260140184815260200183815260200182815260200197505050505050505060206040518083038160008661646e5a03f1151561232857600080fd5b5050604051805190509250600260008973ffffffffffffffffffffffffffffffffffffffff1673ffffffffffffffffffffffffffffffffffffffff1681526020019081526020016000206000846000191660001916815260200190815260200160002060009054906101000a900460ff168061249a57508773ffffffffffffffffffffffffffffffffffffffff1660018460405180807f19457468657265756d205369676e6564204d6573736167653a0a333200000000815250601c0182600019166000191681526020019150506040518091039020898989604051600081526020016040526000604051602001526040518085600019166000191681526020018460ff1660ff16815260200183600019166000191681526020018260001916600019168152602001945050505050602060405160208103908084039060008661646e5a03f1151561247957600080fd5b50506020604051035173ffffffffffffffffffffffffffffffffffffffff16145b80156124a65750894311155b15156124b557600093506125c0565b6125178d600360008b73ffffffffffffffffffffffffffffffffffffffff1673ffffffffffffffffffffffffffffffffffffffff1681526020019081526020016000206000866000191660001916815260200190815260200160002054612a43565b91508a6125a0600160008f73ffffffffffffffffffffffffffffffffffffffff1673ffffffffffffffffffffffffffffffffffffffff16815260200190815260200160002060008b73ffffffffffffffffffffffffffffffffffffffff1673ffffffffffffffffffffffffffffffffffffffff168152602001908152602001600020548f612a5c565b8115156125a957fe5b049050808210156125bc578193506125c0565b8093505b5050509a9950505050505050505050565b60008082840190506125f18482101580156125ec5750838210155b612a8f565b8091505092915050565b612681600160008873ffffffffffffffffffffffffffffffffffffffff1673ffffffffffffffffffffffffffffffffffffffff16815260200190815260200160002060003373ffffffffffffffffffffffffffffffffffffffff1673ffffffffffffffffffffffffffffffffffffffff1681526020019081526020016000205482612a43565b600160008873ffffffffffffffffffffffffffffffffffffffff1673ffffffffffffffffffffffffffffffffffffffff16815260200190815260200160002060003373ffffffffffffffffffffffffffffffffffffffff1673ffffffffffffffffffffffffffffffffffffffff16815260200190815260200160002081905550612787600160008873ffffffffffffffffffffffffffffffffffffffff1673ffffffffffffffffffffffffffffffffffffffff16815260200190815260200160002060008473ffffffffffffffffffffffffffffffffffffffff1673ffffffffffffffffffffffffffffffffffffffff16815260200190815260200160002054826125d1565b600160008873ffffffffffffffffffffffffffffffffffffffff1673ffffffffffffffffffffffffffffffffffffffff16815260200190815260200160002060008473ffffffffffffffffffffffffffffffffffffffff1673ffffffffffffffffffffffffffffffffffffffff168152602001908152602001600020819055506128a1600160008673ffffffffffffffffffffffffffffffffffffffff1673ffffffffffffffffffffffffffffffffffffffff16815260200190815260200160002060008473ffffffffffffffffffffffffffffffffffffffff1673ffffffffffffffffffffffffffffffffffffffff16815260200190815260200160002054866128928685612a5c565b81151561289b57fe5b04612a43565b600160008673ffffffffffffffffffffffffffffffffffffffff1673ffffffffffffffffffffffffffffffffffffffff16815260200190815260200160002060008473ffffffffffffffffffffffffffffffffffffffff1673ffffffffffffffffffffffffffffffffffffffff168152602001908152602001600020819055506129bb600160008673ffffffffffffffffffffffffffffffffffffffff1673ffffffffffffffffffffffffffffffffffffffff16815260200190815260200160002060003373ffffffffffffffffffffffffffffffffffffffff1673ffffffffffffffffffffffffffffffffffffffff16815260200190815260200160002054866129ac8685612a5c565b8115156129b557fe5b046125d1565b600160008673ffffffffffffffffffffffffffffffffffffffff1673ffffffffffffffffffffffffffffffffffffffff16815260200190815260200160002060003373ffffffffffffffffffffffffffffffffffffffff1673ffffffffffffffffffffffffffffffffffffffff16815260200190815260200160002081905550505050505050565b6000612a5183831115612a8f565b818303905092915050565b6000808284029050612a856000851480612a805750838583811515612a7d57fe5b04145b612a8f565b8091505092915050565b801515612a9b57600080fd5b505600a165627a7a723058202bd39923b914f554c73931ebb04d048aaca14331b5f63fa6d60c4c8b9087fe330029",
  "source": "pragma solidity ^0.4.9;\n\ncontract SafeMath {\n  function safeMul(uint a, uint b) internal returns (uint) {\n    uint c = a * b;\n    assert(a == 0 || c / a == b);\n    return c;\n  }\n\n  function safeSub(uint a, uint b) internal returns (uint) {\n    assert(b <= a);\n    return a - b;\n  }\n\n  function safeAdd(uint a, uint b) internal returns (uint) {\n    uint c = a + b;\n    assert(c>=a && c>=b);\n    return c;\n  }\n\n  function assert(bool assertion) internal {\n    if (!assertion) throw;\n  }\n}\n\ncontract Token {\n  /// @return total amount of tokens\n  function totalSupply() constant returns (uint256 supply) {}\n\n  /// @param _owner The address from which the balance will be retrieved\n  /// @return The balance\n  function balanceOf(address _owner) constant returns (uint256 balance) {}\n\n  /// @notice send `_value` token to `_to` from `msg.sender`\n  /// @param _to The address of the recipient\n  /// @param _value The amount of token to be transferred\n  /// @return Whether the transfer was successful or not\n  function transfer(address _to, uint256 _value) returns (bool success) {}\n\n  /// @notice send `_value` token to `_to` from `_from` on the condition it is approved by `_from`\n  /// @param _from The address of the sender\n  /// @param _to The address of the recipient\n  /// @param _value The amount of token to be transferred\n  /// @return Whether the transfer was successful or not\n  function transferFrom(address _from, address _to, uint256 _value) returns (bool success) {}\n\n  /// @notice `msg.sender` approves `_addr` to spend `_value` tokens\n  /// @param _spender The address of the account able to transfer the tokens\n  /// @param _value The amount of wei to be approved for transfer\n  /// @return Whether the approval was successful or not\n  function approve(address _spender, uint256 _value) returns (bool success) {}\n\n  /// @param _owner The address of the account owning tokens\n  /// @param _spender The address of the account able to transfer the tokens\n  /// @return Amount of remaining tokens allowed to spent\n  function allowance(address _owner, address _spender) constant returns (uint256 remaining) {}\n\n  event Transfer(address indexed _from, address indexed _to, uint256 _value);\n  event Approval(address indexed _owner, address indexed _spender, uint256 _value);\n\n  uint public decimals;\n  string public name;\n}\n\ncontract StandardToken is Token {\n\n  function transfer(address _to, uint256 _value) returns (bool success) {\n    //Default assumes totalSupply can't be over max (2^256 - 1).\n    //If your token leaves out totalSupply and can issue more tokens as time goes on, you need to check if it doesn't wrap.\n    //Replace the if with this one instead.\n    if (balances[msg.sender] >= _value && balances[_to] + _value > balances[_to]) {\n    //if (balances[msg.sender] >= _value && _value > 0) {\n      balances[msg.sender] -= _value;\n      balances[_to] += _value;\n      Transfer(msg.sender, _to, _value);\n      return true;\n    } else { return false; }\n  }\n\n  function transferFrom(address _from, address _to, uint256 _value) returns (bool success) {\n    //same as above. Replace this line with the following if you want to protect against wrapping uints.\n    if (balances[_from] >= _value && allowed[_from][msg.sender] >= _value && balances[_to] + _value > balances[_to]) {\n    //if (balances[_from] >= _value && allowed[_from][msg.sender] >= _value && _value > 0) {\n      balances[_to] += _value;\n      balances[_from] -= _value;\n      allowed[_from][msg.sender] -= _value;\n      Transfer(_from, _to, _value);\n      return true;\n    } else { return false; }\n  }\n\n  function balanceOf(address _owner) constant returns (uint256 balance) {\n    return balances[_owner];\n  }\n\n  function approve(address _spender, uint256 _value) returns (bool success) {\n    allowed[msg.sender][_spender] = _value;\n    Approval(msg.sender, _spender, _value);\n    return true;\n  }\n\n  function allowance(address _owner, address _spender) constant returns (uint256 remaining) {\n    return allowed[_owner][_spender];\n  }\n\n  mapping(address => uint256) balances;\n\n  mapping (address => mapping (address => uint256)) allowed;\n\n  uint256 public totalSupply;\n}\n\ncontract ReserveToken is StandardToken, SafeMath {\n  address public minter;\n  function ReserveToken() {\n    minter = msg.sender;\n  }\n  function create(address account, uint amount) {\n    if (msg.sender != minter) throw;\n    balances[account] = safeAdd(balances[account], amount);\n    totalSupply = safeAdd(totalSupply, amount);\n  }\n  function destroy(address account, uint amount) {\n    if (msg.sender != minter) throw;\n    if (balances[account] < amount) throw;\n    balances[account] = safeSub(balances[account], amount);\n    totalSupply = safeSub(totalSupply, amount);\n  }\n}\n\n\n\n\ncontract MicroDex is SafeMath {\n\n  bool locked;\n  //check account balances for this token; we do not use ether\n\n\n  mapping (address => mapping (address => uint)) public tokens; //mapping of token addresses to mapping of account balances (token=0 means Ether)\n  mapping (address => mapping (bytes32 => bool)) public orders; //mapping of user accounts to mapping of order hashes to booleans (true = submitted by user, equivalent to offchain signature)\n  mapping (address => mapping (bytes32 => uint)) public orderFills; //mapping of user accounts to mapping of order hashes to uints (amount of order that has been filled)\n\n  event Order(address tokenGet, uint amountGet, address tokenGive, uint amountGive, uint expires, uint nonce, address user);\n  event Cancel(address tokenGet, uint amountGet, address tokenGive, uint amountGive, uint expires, uint nonce, address user, uint8 v, bytes32 r, bytes32 s);\n  event Trade(address tokenGet, uint amountGet, address tokenGive, uint amountGive, address get, address give);\n  event Deposit(address token, address user, uint amount, uint balance);\n  event Withdraw(address token, address user, uint amount, uint balance);\n\n  function MicroDex( ) {\n\n    if(locked)revert();\n    locked = true;\n  }\n\n  function() {\n    throw;\n  }\n\n\n\n\n   /**\n  * This function handles deposits of Ether into the contract.\n  * Emits a Deposit event.\n  * Note: With the payable modifier, this function accepts Ether.\n  */\n  function deposit() public payable {\n    tokens[0][msg.sender] = safeAdd(tokens[0][msg.sender],msg.value);\n    Deposit(0, msg.sender, msg.value, tokens[0][msg.sender]);\n  }\n\n  /**\n  * This function handles withdrawals of Ether from the contract.\n  * Verifies that the user has enough funds to cover the withdrawal.\n  * Emits a Withdraw event.\n  * @param amount uint of the amount of Ether the user wishes to withdraw\n  */\n  function withdraw(uint amount) public {\n    require(tokens[0][msg.sender] >= amount);\n    tokens[0][msg.sender] = safeSub(tokens[0][msg.sender],amount);\n    msg.sender.transfer(amount);\n    Withdraw(0, msg.sender, amount, tokens[0][msg.sender]);\n  }\n\n\n\n  //call this using ApproveAndCall\n  //allows for interacting with ether directly as token[0]\n  function depositToken(address token, uint amount) {\n    //remember to call Token(address).approve(this, amount) or this contract will not be able to do the transfer on your behalf.\n    if (token==0) throw;\n    if (!Token(token).transferFrom(msg.sender, this, amount)) throw;\n    tokens[token][msg.sender] = safeAdd(tokens[token][msg.sender], amount);\n    Deposit(token, msg.sender, amount, tokens[token][msg.sender]);\n  }\n\n  function withdrawToken(address token, uint amount) {\n    if (token==0) throw;\n    if (tokens[token][msg.sender] < amount) throw;\n    tokens[token][msg.sender] = safeSub(tokens[token][msg.sender], amount);\n    if (!Token(token).transfer(msg.sender, amount)) throw;\n    Withdraw(token, msg.sender, amount, tokens[token][msg.sender]);\n  }\n\n  function balanceOf(address token, address user) constant returns (uint) {\n    return tokens[token][user];\n  }\n\n  function order(address tokenGet, uint amountGet, address tokenGive, uint amountGive, uint expires, uint nonce) {\n    bytes32 hash = sha256(this, tokenGet, amountGet, tokenGive, amountGive, expires, nonce);\n    orders[msg.sender][hash] = true;\n    Order(tokenGet, amountGet, tokenGive, amountGive, expires, nonce, msg.sender);\n  }\n\n  function trade(address tokenGet, uint amountGet, address tokenGive, uint amountGive, uint expires, uint nonce, address user, uint8 v, bytes32 r, bytes32 s, uint amount) {\n    //amount is in amountGet terms\n    bytes32 hash = sha256(this, tokenGet, amountGet, tokenGive, amountGive, expires, nonce);\n    if (!(\n      (orders[user][hash] || ecrecover(sha3(\"\\x19Ethereum Signed Message:\\n32\", hash),v,r,s) == user) &&\n      block.number <= expires &&\n      safeAdd(orderFills[user][hash], amount) <= amountGet\n    )) throw;\n    tradeBalances(tokenGet, amountGet, tokenGive, amountGive, user, amount);\n    orderFills[user][hash] = safeAdd(orderFills[user][hash], amount);\n    Trade(tokenGet, amount, tokenGive, amountGive * amount / amountGet, user, msg.sender);\n  }\n\n  function tradeBalances(address tokenGet, uint amountGet, address tokenGive, uint amountGive, address user, uint amount) private {\n  //  uint feeMakeXfer = safeMul(amount, feeMake) / (1 ether);\n  //  uint feeTakeXfer = safeMul(amount, feeTake) / (1 ether);\n  //  uint feeRebateXfer = 0;\n  //  if (accountLevelsAddr != 0x0) {\n  //    uint accountLevel = AccountLevels(accountLevelsAddr).accountLevel(user);\n  //    if (accountLevel==1) feeRebateXfer = safeMul(amount, feeRebate) / (1 ether);\n  //    if (accountLevel==2) feeRebateXfer = feeTakeXfer;\n  //  }\n    tokens[tokenGet][msg.sender] = safeSub(tokens[tokenGet][msg.sender], amount);\n    tokens[tokenGet][user] = safeAdd(tokens[tokenGet][user], amount);\n  //  tokens[tokenGet][feeAccount] = safeAdd(tokens[tokenGet][feeAccount], safeSub(safeAdd(feeMakeXfer, feeTakeXfer), feeRebateXfer));\n    tokens[tokenGive][user] = safeSub(tokens[tokenGive][user], safeMul(amountGive, amount) / amountGet);\n    tokens[tokenGive][msg.sender] = safeAdd(tokens[tokenGive][msg.sender], safeMul(amountGive, amount) / amountGet);\n  }\n\n  function testTrade(address tokenGet, uint amountGet, address tokenGive, uint amountGive, uint expires, uint nonce, address user, uint8 v, bytes32 r, bytes32 s, uint amount, address sender) constant returns(bool) {\n    if (!(\n      tokens[tokenGet][sender] >= amount &&\n      availableVolume(tokenGet, amountGet, tokenGive, amountGive, expires, nonce, user, v, r, s) >= amount\n    )) return false;\n    return true;\n  }\n\n  function availableVolume(address tokenGet, uint amountGet, address tokenGive, uint amountGive, uint expires, uint nonce, address user, uint8 v, bytes32 r, bytes32 s) constant returns(uint) {\n    bytes32 hash = sha256(this, tokenGet, amountGet, tokenGive, amountGive, expires, nonce);\n    if (!(\n      (orders[user][hash] || ecrecover(sha3(\"\\x19Ethereum Signed Message:\\n32\", hash),v,r,s) == user) &&\n      block.number <= expires\n    )) return 0;\n    uint available1 = safeSub(amountGet, orderFills[user][hash]);\n    uint available2 = safeMul(tokens[tokenGive][user], amountGet) / amountGive;\n    if (available1<available2) return available1;\n    return available2;\n  }\n\n  function amountFilled(address tokenGet, uint amountGet, address tokenGive, uint amountGive, uint expires, uint nonce, address user, uint8 v, bytes32 r, bytes32 s) constant returns(uint) {\n    bytes32 hash = sha256(this, tokenGet, amountGet, tokenGive, amountGive, expires, nonce);\n    return orderFills[user][hash];\n  }\n\n  function cancelOrder(address tokenGet, uint amountGet, address tokenGive, uint amountGive, uint expires, uint nonce, uint8 v, bytes32 r, bytes32 s) {\n    bytes32 hash = sha256(this, tokenGet, amountGet, tokenGive, amountGive, expires, nonce);\n    if (!(orders[msg.sender][hash] || ecrecover(sha3(\"\\x19Ethereum Signed Message:\\n32\", hash),v,r,s) == msg.sender)) throw;\n    orderFills[msg.sender][hash] = amountGet;\n    Cancel(tokenGet, amountGet, tokenGive, amountGive, expires, nonce, msg.sender, v, r, s);\n  }\n}\n",
  "sourcePath": "/home/andy/dev/micro-dex/contracts/MicroDex.sol",
  "compiler": {
    "name": "solc",
    "version": "0.4.19+commit.c4cbbb05.Emscripten.clang"
  },
  "schemaVersion": "2.0.0",
  "updatedAt": "2018-04-03T12:27:58.018Z"
}